S01A000074656D7065726174757265206C6F676765722E73726563BC
S1130000D8000120E9020000E5020000E50200003A
S1130010E5020000E5020000E50200000000000027
S1130020000000000000000000000000E5020000E5
S1130030E502000000000000E5020000E502000007
S1130040E5020000E5020000E5020000E502000010
S1130050E5020000E5020000E5020000E502000000
S1130060E5020000E5020000E5020000E5020000F0
S1130070E5020000E5020000E5020000E5020000E0
S1130080E5020000E5020000E5020000E5020000D0
S1130090E5020000E5020000E5020000E5020000C0
S11300A0E5020000E5020000E5020000E5020000B0
S11300B0E5020000E5020000E5020000E5020000A0
S11300C0E5020000E5020000E5020000E502000090
S11300D0E5020000E5020000E5020000E502000080
S11300E0E5020000E502000000000000000000003E
S11300F00000000021080000E5020000E502000005
S1130100E5020000E5020000E5020000E50200004F
S1130110E5020000E5020000E5020000E50200003F
S1130120E5020000E5020000E5020000E50200002F
S1130130E5020000E5020000E5020000E50200001F
S1130140E5020000E5020000E5020000E50200000F
S1130150E5020000E5020000E5020000E5020000FF
S1130160E5020000E5020000E5020000E5020000EF
S1130170E5020000E5020000E5020000E5020000DF
S1130180E5020000E5020000E5020000E5020000CF
S1130190E5020000E5020000E5020000E5020000BF
S11301A0E5020000E5020000E5020000E5020000AF
S11301B0E5020000E5020000E5020000E50200009F
S11301C0E5020000E5020000E5020000E50200008F
S11301D0E5020000E5020000E5020000E50200007F
S11301E0E5020000E5020000E5020000E50200006F
S11301F0E5020000E5020000E5020000E50200005F
S1130200E5020000E5020000E5020000E50200004E
S1130210E5020000E5020000E5020000E50200003E
S1130220E5020000E5020000E5020000E50200002E
S1130230E5020000E5020000E5020000E50200001E
S1130240E5020000E5020000E5020000E50200000E
S1130250E5020000E5020000E5020000E5020000FE
S1130260E502000010B5054C237833B9044B13B1F3
S11302700448AFF300800123237010BD6400002004
S113028000000000101B00000C4B43B10C480D494A
S113029010B5AFF300800C48036823B910BD0A48B9
S11302A0036833B97047094B002BF7D0BDE8104001
S11302B01847064B002BF5D0184700BF000000007C
S11302C0101B000068000020101B0000000000004C
S11302D008B5024B9847024B984708BDBD0400007F
S11302E0C9110000FEE7000008B5154B154A9A42F3
S11302F009D0134B134A03E0116819600433043224
S113030011498B42F8D3114B02E000221A600433E6
S11303100F4A9342F9D30F4B0F4A22F07F029A609F
S1130320D3F8882042F47002C3F88820BFF34F8FBB
S1130330BFF36F8F094B9847094B9847FEE700BFFF
S113034000000020101B0000640000206400002056
S1130350D400002000ED00E000000000E9110000DE
S1130360FD100000104B93F8D92002F0FE0242F079
S1130370010283F8D92093F8BC2002F00F0242F066
S1130380300283F8BC2093F8D82002F0FE0242F039
S1130390010283F8D82093F8BC2002F0F00242F066
S11303A0030283F8BC20704700800041064B4022C2
S11303B0C3F8DC204322C3F88C20044A936943F435
S11303C000739361704700BF001C004000080040A8
S11303D008B5054B9847002204490548054B984742
S11303E0054B984708BD00BFAD0300000020014144
S11303F094000020C906000065030000164B93F822
S1130400562002F0FB0283F8562093F8562002F09F
S1130410FE0242F0010283F8562093F83B2002F0DA
S1130420F00242F0020283F83B2093F8572002F0D6
S1130430FB0283F8572093F8572002F0FE0242F0A3
S1130440010283F8572093F83B2002F00F0242F098
S1130450200283F83B20704700800041064B402275
S1130460C3F8E0204322C3F88C20044A936943F480
S113047080639361704700BF001C00400008004087
S113048008B5044B984704490448054B9847054B65
S1130490984708BD5D04000000400141A000002011
S11304A055050000FD03000008B50248024B9847BB
S11304B008BD00BF10E000E0E104000008B5044BF3
S11304C09847044B9847044B9847044B984708BDFA
S11304D081070000D103000081040000A90400008A
S11304E008B5024B1860024B984708BD80000020F5
S11304F0F110000010B584B00389ADF8043014463F
S113050002924FF40043ADF80630039101A9143868
S1130510034B984710B9204604B010BD0446FAE7CF
S11305202D0E000010B584B00389ADF804301446D4
S1130530029248F20103ADF80630039101A9143880
S1130540034B984710B9204604B010BD0446FAE79F
S11305502D0E000038B50D4604465E2208490030D1
S113056018BF0120074B984729462046064B984759
S1130570034618B9054AA261054A6261184638BDA6
S1130580B019000041070000FD0D00002505000022
S1130590F504000070B50D461646044668B151B125
S11305A0012034220649074B9847236832462946DE
S11305B02046984770BD0020F3E70020F1E700BF14
S11305C0CC1900004107000070B50D4616460446DC
S11305D068B151B101203D220649074B9847636831
S11305E0324629462046984770BD0020F3E7002094
S11305F0F1E700BFCC19000041070000F8B50E4632
S11306001746054608B311B31ABB0020F12212495C
S1130610124B984705F108042046114B98470028CF
S1130620F8D00025715D20460E4B984720460C4BB0
S113063098470028FAD00135BD42F3D320460A4B2F
S113064098470028FAD02846F8BD0020DEE70020AD
S1130650DCE70120DAE700BFE019000041070000F1
S1130660DF0D0000D10D0000E90D00002DE9F0417F
S11306700F4690460546C8B1D1B1DAB900204FF40F
S113068086720D490D4B9847002605F10804204653
S11306900B4B98470028F8D020460A4B9847B8558A
S11306A001364645F1D33046BDE8F0810020E6E747
S11306B00020E4E70120E2E7E01900004107000020
S11306C0F30D0000D70D000038B50D460446A0B167
S11306D089B1012034220A490A4B9847294604F17A
S11306E00800094B9847034618B9084A6260084A4B
S11306F02260184638BD0020ECE70020EAE700BF7E
S1130700E019000041070000910D00006D06000093
S1130710FD05000010B5044653220649003018BFF9
S11307200120054B984704F10800044B984700202A
S113073010BD00BFE019000041070000BD0D00001E
S113074000B900BE704700000346064A126822B191
S1130750044A10680344136070470349014A116056
S1130760F6E700BF84000020D80001204FF0FF30DE
S113077070474FF400534B600020704700207047CF
S113078008B5084A13889BB21380074B9847074B58
S11307909847074B9847074B984740F6FF70064B1E
S11307A0984708BD00400041ED0700000108000023
S11307B0E10700001D080000BD07000010F0010F54
S11307C008D0054A054B1A62044B5A6843F6FD7378
S11307D01A42F9D1704700BF01010100001C00401A
S11307E00122014B5A71704700080040034BDA693B
S11307F002F47C52DA6101221A747047001400403A
S1130800044A054B9A61044B1B6913F0020FFAD09A
S1130810704700BF06260003001000407047000028
S113082000B583B00D4B9B78DBB20193019B13F0B1
S1130830020F06D00A4B1B681BB1084A5068984740
S113084009E0019B13F0010F05D0054B5B6813B160
S1130850024A5068984703B05DF804FB0000024167
S1130860C000002070B489B006466C460C4D0FCD14
S11308700FC495E80F0084E80F00002007280AD869
S113088008AB03EB800353F8203CB34201D00130A2
S1130890F4E7C0B200E0002009B070BC704700BFAC
S11308A0FC19000008B50C4B9847002343B140F2F3
S11308B047220A4900200A4B98470023184608BDDE
S11308C003EB4302D100074A0A4492F820209042E5
S11308D0F4D00133DBB2E9E765080000701A0000C8
S11308E041070000FC19000038B504463C4B98470A
S11308F0E36913F0010F22D100EB4003DA00394B16
S113090013445A6A02F01C02E36913F0030FFBD18B
S1130910236813F0020F0BD0236823F00203236033
S1130920E36913F0030FFBD1E36913F0020FFBD16A
S113093042F001022260E36913F0030FFBD1E36983
S113094013F0010FFBD100EB4003DA00254B1344F5
S11309505B6A2360E36913F0030FFBD100EB4003F0
S1130960DA00204B13449B6A6360E36913F01F0FA2
S1130970FBD142000244D1001A4B0B44DA6AA26054
S11309805B6A13F4005F0AD113F4C04F07D100EB84
S11309904003DA00134B13441B8EA3810FE0420083
S11309A00244D1000F4B0B44198EA28961F30C024F
S11309B0A28193F83220A38962F34F33A381094AB9
S11309C043001D18E9000D46114491F83310A1733A
S11309D02A4492F8343084F83030002038BD00BF07
S11309E0A5080000FC19000008B50D4B984700232A
S11309F043B140F2A6320B4900200B4B98474FF00D
S1130A00FF3008BD03EB4302D100084A0A4492F8C0
S1130A103820904202D00133DBB2E9E758B208BD76
S1130A2065080000701A000041070000FC1900006E
S1130A3038B505460C460846334B9847C0B2E369BF
S1130A4013F0010F22D100EB4003DA002F4B1344C3
S1130A50DA6B02F01C02E36913F0030FFBD1236885
S1130A6013F0020F0BD0236823F002032360E36921
S1130A7013F0030FFBD1E36913F0020FFBD142F033
S1130A8001022260E36913F0030FFBD1E36913F061
S1130A90010FFBD100EB4003DA001C4B1344DB6B6A
S1130AA02360E36913F0030FFBD100EB4003DA008A
S1130AB0164B13441B6C6360E36913F0040FFBD102
S1130AC042000244D100114B0B445A6CE26093F88B
S1130AD03F3003F00303AB81012B94BF00230123B8
S1130AE0626A22F4804242EA83336362E36913F068
S1130AF0040FFBD100EB4000C200044B1344B3F8D5
S1130B004A30EB81002038BDE9090000FC190000DF
S1130B1070B5054604692668C6F3C06640F2A5525E
S1130B209949003018BF0120984B98476B68012BF6
S1130B3057D0636823F480236360E36913F0040FE0
S1130B40FBD12B8813F4806F56D06A8812F0010F02
S1130B5004D06A8892B242F480626A8040F2FE72E3
S1130B6002EA4302E36913F0040FFBD1636A03F45E
S1130B708043134343F400436362E36913F0040FB7
S1130B80FBD12E694FF6FF72337EDBB21846511E3D
S1130B901AB10A4613F0030FF6D02268C2F3C062FA
S1130BA0E36913F0040FFBD1638B9BB210F0010FC8
S1130BB000F09C8013F0020F32D0012222766A8862
S1130BC092B242F480526A806A8892B222F48072AD
S1130BD092B26A8013F0010F00F0D1806FF004002C
S1130BE070BD002EA5D0636843F480236360E3697D
S1130BF013F0040FFBD1A4E75B00DBB26A8802F0B8
S1130C0001021A43E36913F0040FFBD1636A03F48E
S1130C10804313436362E36913F0040FFBD1B0E72D
S1130C2013F0040F1FD16B8813F4806F39D02B8815
S1130C301B125B0003F00602E36913F0040FFBD1FF
S1130C40636A03F48043134343F0F1036362E3698B
S1130C5013F0040FFBD16B889BB223F480639BB227
S1130C606B80002070BD6B68002B04DD6B889BB229
S1130C7043F480536B806B8813F4004F08D16B8866
S1130C809BB223F480739BB26B806FF0010070BD44
S1130C90636843F440336360E36913F0040FFBD1EA
S1130CA0EDE7686898B96B8813F4004F06D16B8838
S1130CB09BB223F480739BB26B8070BD636843F472
S1130CC040336360E36913F0040FFBD1EFE7AB68D3
S1130CD01B78A362E36913F0040FFBD1AB68013303
S1130CE0AB606B68013B6B60002070BD10F0020FBD
S1130CF048D0696800293DD013F0040F3AD1013976
S1130D00696001B9E2B1012918D06B684BB96B88ED
S1130D1013F4004F1DD16B889BB223F480739BB2F4
S1130D206B80AA68531CAB60E36913F0040FFBD11A
S1130D30A36A137002232376002070BD002AE4D036
S1130D40636843F480236360E36913F0040FFBD109
S1130D50DBE7636823F480736360E36913F0040FD3
S1130D60FBD1636843F440336360E36913F0040F19
S1130D70FBD1D0E7022323766FF0010070BD6FF042
S1130D80030070BD002070BD701A00004107000010
S1130D9038B50C460546BB220549003018BF012072
S1130DA0044B98472C602046034B984738BD00BF3E
S1130DB0701A000041070000E90800000268136887
S1130DC043F002031360D36913F0030FFBD17047A0
S1130DD00368996270470368986AC0B270470368F1
S1130DE0187E00F0010070470368187EC0F34000CD
S1130DF070470368187EC0F38000704738B50D460D
S1130E0004464FF4A3620649003018BF0120054B85
S1130E109847256129462046034B984738BD00BFB3
S1130E20701A000041070000310A00002DE9F0416A
S1130E3005460E460469DFF8A0824FF4BA624146C3
S1130E40003018BF0120A24FB847286940F2D152A0
S1130E504146003018BF0120B84740F2D252414603
S1130E60301C18BF0120B8476B8813F4807F40F012
S1130E702A8173889BB243F48073738096E80700D9
S1130E8085E80700636843F480736360E36913F0E3
S1130E90040FFBD128468F4B98470346002800F0E7
S1130EA0B0806A8892B222F4807292B26A80BDE8FD
S1130EB0F0816FF00400B7E0738813F4004F07D19A
S1130EC06B889BB223F480739BB26B80BDE8F08186
S1130ED0636843F440336360E36913F0040FFBD1A8
S1130EE0EEE713F0040F1FD16B8813F4806F39D031
S1130EF02B881B125B0003F00602E36913F0040F56
S1130F00FBD1636A03F48043134343F0F103636248
S1130F10E36913F0040FFBD16B889BB223F4806365
S1130F209BB26B8000206BE06B68002B04DD6B8848
S1130F309BB243F480536B806B8813F4004F08D149
S1130F406B889BB223F480739BB26B806FF00100BB
S1130F5056E0636843F440336360E36913F0040FBD
S1130F60FBD1EDE7686898B96B8813F4004F06D19C
S1130F706B889BB223F480739BB26B8040E0636800
S1130F8043F440336360E36913F0040FFBD1EFE7EC
S1130F90AB681B78A362E36913F0040FFBD1AB6861
S1130FA00133AB606B68013B6B60002028E017F0F5
S1130FB0020F00F083806968002977D013F0040FD2
S1130FC074D10139696009B9002A55D0012951D079
S1130FD06B684BB96B8813F4004F56D16B889BB286
S1130FE023F480739BB26B80AA68531CAB60E369E3
S1130FF013F0040FFBD1A36A13700223237600209D
S113100003466A8812F4807F5AD028694FF6FF722B
S1131010037EDBB21F46511E002A3FF44AAF0A4644
S113102013F0030FF4D0002000287FF445AF2268AA
S1131030C2F3C062E36913F0040FFBD1638B9BB26C
S113104017F0010FB3D013F0020F3FF44AAF01229F
S113105022766A8892B242F480526A806A8892B296
S113106022F4807292B26A8013F0010F23D06FF0E1
S11310700400C5E7002AABD0636843F480236360AF
S1131080E36913F0040FFBD1A2E7636823F48073D0
S11310906360E36913F0040FFBD1636843F44033E6
S11310A06360E36913F0040FFBD197E7022323760F
S11310B06FF00100A4E76FF00300A1E700209FE7B1
S11310C01846BDE8F0816FF00500BDE8F08100BF6F
S11310D041070000110B0000701A0000034B6FF071
S11310E07F425A6005221A60704700BF10E000E09A
S11310F008B5014B984708BDDD10000008B5014B49
S11311009847FEE7D102000058B908B50B461146CE
S11311101846054B9847002800DB08BD4FF0FF3008
S113112008BD4FF0FF3070478111000001380228DC
S11311300BD808B50B4611461846054B98470028AE
S113114000DB08BD4FF0FF3008BD4FF0FF307047A3
S1131150A511000070B50646064D2B68002198685D
S1131160054CA0472B6800215868A047034B1E601C
S113117070BD00BF00000020411200008800002064
S113118008B5064B1B6833B10A46014692B21846AD
S1131190034B984708BD002008BD00BF880000200D
S11311A0C905000008B5064B1B6833B10A46014661
S11311B092B21846034B984708BD002008BD00BFF3
S11311C0880000209505000010B5044C2046044B0F
S11311D098472046034B984710BD00BF9400002059
S11311E0150700005511000070B50D4E0D4CA41BE1
S11311F0A4100025A54209D10B4E0C4C00F078FC3C
S1131200A41BA4100025A54205D170BD56F82530B5
S113121098470135EEE756F8253098470135F2E74F
S1131220FC1A0000FC1A0000FC1A0000001B00005D
S113123002440346934200D1704703F8011BF9E7C7
S113124000294FF480630CBF0222002200F000B892
S11312502DE9F7431D46514B1E6804460F46904640
S113126026B1B36913B9304600F092F94C4B9C4255
S113127052D17468B8F1020F06D0B8F1010F00F230
S11312808980002DC0F286802146304600F016F990
S1131290616B41B104F14403994202D0304600F03D
S11312A02DFA002363630023A3616360A3891B06F3
S11312B003D52169304600F021FAA38923F44A6357
S11312C023F00303B8F1020FA3815DD001AB6A469A
S11312D02146304600F0E6F9A3891843A0812DBBCE
S11312E0009D284600F002FA074600284ED1DDF89A
S11312F00090A9453CD14FF0FF30A38943F002038D
S1131300A3810023A36004F1470323602361012325
S1131310636103B0BDE8F083224B9C4201D1B46801
S1131320A8E7214B9C4208BFF468A3E7002FD8D05C
S1131330B36913B9304600F02BF9B8F1010F08BFB7
S1131340A389276004BF43F00103A381A389276114
S113135013F0080065611BD013F0010018BF6D4243
S11313604FF000031DBFA360A5611846A560D0E738
S1131370484600F0BBF907460028BCD0A38943F0D7
S11313808003A3814D46D3E70020B6E7A946F5E7DD
S1131390A060BEE74FF0FF30BBE700BF00000020B5
S11313A0B01A0000D01A0000901A00008A892DE9B2
S11313B0F041054610070C465AD44B68002B05DC57
S11313C00B6C002B02DC0020BDE8F081E66A002EE5
S11313D0F9D0002312F480522F682B6033D0606D53
S11313E0A3895A0705D56368C01A636B0BB1236CD4
S11313F0C01A00230246E66A216A2846B047431C05
S1131400A38906D129681D294BD82B4ACA40D6077F
S113141047D500226260D9042269226004D5421CA7
S113142001D12B6803B96065616B2F600029CAD0B4
S113143004F14403994202D0284600F05FF90020E9
S11314406063BDE8F081216A01232846B047411C4E
S1131450C6D12B68002BC3D01D2B01D0162B01D174
S11314602F60B0E7A38943F04003A381BDE8F08176
S11314700F69002FA7D093070E6808BF4B690F6050
S113148018BF0023A6EB07088B60B8F1000F9ADDA4
S113149043463A46216AA66A2846B047002807DC34
S11314A0A38943F04003A3814FF0FF30BDE8F081EE
S11314B00744A8EB0008E8E70100402038B50B69B1
S11314C005460C46DBB118B183690BB900F060F82E
S11314D00C4B9C4209D16C68B4F90C307BB12146A9
S11314E02846BDE83840FFF761BF074B9C4201D155
S11314F0AC68F1E7054B9C4208BFEC68ECE70020C0
S113150038BD00BFB01A0000D01A0000901A0000C5
S1131510014900F0A9B800BFBD140000002310B5B4
S1131520044603604360836081814366C281036132
S113153043618361194608225C30FFF779FE054B4D
S11315406362054BA362054BE362054B246223638C
S113155010BD00BF7518000097180000CF180000D8
S1131560F318000070B54A1E682555430E4605F170
S1131570740100F011F9044640B1002180E84200F2
S11315800C30A06005F16802FFF752FE204670BDE2
S1131590836910B5044633BB8364C3640365124B8B
S11315A0124A1B688262984204BF0123836100F0DF
S11315B01FF86060204600F01BF8A060204600F091
S11315C017F80022E06004216068FFF7A7FF0122FA
S11315D00921A068FFF7A2FF02221221E068FFF7A9
S11315E09DFF0123A36110BD8C1A0000111500009A
S11315F0F8B51C4B1E68B369074613B93046FFF7AC
S1131600C7FF4836B4687368013B03D5336833B108
S11316103668F7E7B4F90C506DB16834F4E7042187
S11316203846FFF79FFF30600028F1D10C233B6060
S113163004462046F8BD4FF6FF73E3810123A381DE
S113164065662560A560656025616561A561082200
S1131650294604F15C00FFF7EBFD6563A563A5640F
S1131660E564E6E78C1A00002DE9F84380468946D4
S113167000F14804002614B93046BDE8F883A56893
S11316806768013F01D52468F5E7AB89012B07D9C9
S1131690B5F90E30013303D029464046C847064306
S11316A06835EEE770B50E46B1F90E10002990B01A
S11316B014461D4607DA00232B60B3891A0610D49A
S11316C04FF480630EE001AA00F03AF90028F2DB3F
S11316D0029A02F47042A2F500535A425A412A6017
S11316E0EEE740230020236010B070BD024B01469A
S11316F0186800F051B800BF0000002038B5054656
S1131700002945D051F8043C0C1F002BB8BFE41845
S113171000F03AF91F4A1368104633B96360146045
S11317202846BDE8384000F030B9A3420CD92168FE
S11317306218934204BF1A685B68636004BF52185E
S113174022600460ECE713465A680AB1A242FAD94F
S113175019685818A0420BD12068014458188242D5
S11317601960DDD1106852685A6001441960D7E7E6
S113177002D90C232B60D3E7206821188A4204BFC6
S113178011685268626004BF091821605C60C7E791
S113179038BD00BF8C00002070B5CD1C25F00305BA
S11317A008350C2D38BF0C25002D064601DBA94257
S11317B003D90C233360002070BD00F0E5F8234A00
S11317C01468214691B9224C23681BB9304600F0B5
S11317D041F820602946304600F03CF8431C26D1ED
S11317E00C233360304600F0D0F8E4E70B685B1B51
S11317F01AD40B2B0FD90B60CD50CC18304600F007
S1131800C4F804F10B00231D20F00700C31A1BD0F9
S11318105A42E25070BD8C420DBF63684B686360EE
S1131820136018BF0C46E9E70C464968CAE7C41CB4
S113183024F00304A04205D0211A304600F00AF82F
S11318400130CDD02560D9E770BD00BF8C000020E9
S11318509000002038B5064C002305460846236056
S1131860FEF772FF431C02D1236803B12B6038BD1D
S1131870D000002010B50C46B1F90E1000F086F827
S11318800028ABBF636DA3891B1823F48053ACBF3E
S11318906365A38110BD2DE9F0411F468B89DB05EB
S11318A005460C46164605D502230022B1F90E1052
S11318B000F058F8A389B4F90E1023F48053A381DF
S11318C032463B462846BDE8F04100F017B810B553
S11318D00C46B1F90E1000F045F8431CA38915BF5E
S11318E0606523F4805343F48053A38118BFA3811C
S11318F010BDB1F90E1000F013B8000038B5074C54
S1131900054608461146002222601A46FFF70EFCDF
S1131910431C02D1236803B12B6038BDD0000020E2
S113192038B5064C0023054608462360FEF71EFF23
S1131930431C02D1236803B12B6038BDD0000020C2
S113194038B5074C00230546084611462360FEF7C8
S113195010FF431C02D1236803B12B6038BD00BFC4
S1131960D000002038B5074C054608461146002231
S113197022601A46FEF702FF431C02D1236803B11A
S11319802B6038BDD00000207047704738B5074C35
S1131990054608461146002222601A46FFF7B4FBAA
S11319A0431C02D1236803B12B6038BDD000002052
S11319B02E2E2F68616C2F7372632F68616C5F69C0
S11319C032635F6D5F73796E632E63002E2E2F6812
S11319D0616C2F7372632F68616C5F696F2E630093
S11319E02E2E2F68616C2F7372632F68616C5F7584
S11319F0736172745F73796E632E6300003000400C
S1131A000034004000200141004001410000004337
S1131A100004004300080043000C004302000000DF
S1131A20040010400000030002007000ADD8000064
S1131A30000000000300000014002000000100006A
S1131A40080900000100D700001BB70000000000D7
S1131A500000000000000000000000000000000082
S1131A600000000000000000000000000000000072
S1131A702E2E2F68706C2F736572636F6D2F6870D4
S1131A806C5F736572636F6D2E6300000400002049
S1131A900000000000000000000000000000000042
S1131AA00000000000000000000000000000000032
S1131AB00000000000000000000000000000000022
S1131AC00000000000000000000000000000000012
S1131AD00000000000000000000000000000000002
S1131AE000000000000000000000000000000000F2
S1131AF0F8B500BFF8BC08BC9E46704789020000D8
S1131B00F8B500BFF8BC08BC9E46704765020000EB
S1131B100400002000000000B01A0000D01A0000E9
S1131B20901A000000000000000000000000000007
S1131B3000000000000000000000000000000000A1
S1131B400000000000000000000000000000000091
S1131B500000000000000000000000000000000081
S1131B600000000000000000000000000000000071
S1071B70000000006D
S9030000FC
